S01300004D6F7573654D696E6465722E73726563A9
S11300000AC019C018C017C016C015C014C013C048
S113001013C011C010C011271FBFCFE5D0E0DEBF51
S1130020CDBF20E0A0E4B0E001C01D93A134B2072D
S1130030E1F710D0CBC0E4CF1F930F930FB70F930A
S113004010E04F9341E040A94F910F910FBF0F91E2
S11300501F91189541B1456041B942B14A7F42B9F7
S1130060EF98F894A8954BB7477F4BBF48ED4CBF2A
S113007046E441BF789448EC50E069E2029A762F56
S11300807A95F1F70000029A762F7A95F1F700003D
S11300904150510B99F7129843ED50E341505040B1
S11300A0E9F700C0000048EC50E069E2029A762FBC
S11300B07A95F1F70000029A762F7A95F1F700000D
S11300C04150510B99F7129863ED70E36150704001
S11300D0E9F700C0000048EC50E069E2029A762F8C
S11300E07A95F1F70000029A762F7A95F1F70000DD
S11300F04150510B99F7129883ED90E38150904051
S1130100E9F700C0000048EC50E069E2029A762F5B
S11301107A95F1F70000029A762F7A95F1F70000AC
S11301204150510B99F71298109A47E853E1415006
S11301305040E9F700C00000109861E049E235C082
S1130140109A87E893E181509040E9F700C00000DD
S113015010986F5F643008F428C068EC70E0029A6D
S1130160542F5A95F1F70000029A542F5A95F1F73B
S113017000006150710B99F7129863ED70E36150C0
S11301807040E9F700C0000068EC70E0029A542F58
S11301905A95F1F70000029A542F5A95F1F700008E
S11301A06150710B99F7129860E010A95AB7517F0A
S11301B054605ABF5AB751605ABF789488955AB759
S11301C05E7F5ABF50A15523E9F3BACFF894FFCF0D
S9030000FC
